{
  "contractName": "rpsls",
  "abi": [
    {
      "constant": false,
      "inputs": [
        {
          "name": "hostGame",
          "type": "address"
        },
        {
          "name": "choice",
          "type": "string"
        },
        {
          "name": "key",
          "type": "string"
        }
      ],
      "name": "reveal",
      "outputs": [
        {
          "name": "",
          "type": "address"
        }
      ],
      "payable": false,
      "stateMutability": "nonpayable",
      "type": "function"
    },
    {
      "constant": false,
      "inputs": [
        {
          "name": "choice",
          "type": "string"
        },
        {
          "name": "key",
          "type": "string"
        }
      ],
      "name": "start",
      "outputs": [],
      "payable": true,
      "stateMutability": "payable",
      "type": "function"
    },
    {
      "constant": true,
      "inputs": [
        {
          "name": "hostGame",
          "type": "address"
        }
      ],
      "name": "getGameStatus",
      "outputs": [
        {
          "name": "",
          "type": "uint256"
        },
        {
          "name": "",
          "type": "address"
        },
        {
          "name": "",
          "type": "address"
        },
        {
          "name": "",
          "type": "bytes32"
        },
        {
          "name": "",
          "type": "bytes32"
        },
        {
          "name": "",
          "type": "string"
        },
        {
          "name": "",
          "type": "string"
        }
      ],
      "payable": false,
      "stateMutability": "view",
      "type": "function"
    },
    {
      "constant": false,
      "inputs": [
        {
          "name": "hostGame",
          "type": "address"
        },
        {
          "name": "choice",
          "type": "string"
        },
        {
          "name": "key",
          "type": "string"
        }
      ],
      "name": "join",
      "outputs": [],
      "payable": true,
      "stateMutability": "payable",
      "type": "function"
    },
    {
      "constant": false,
      "inputs": [
        {
          "name": "hostGame",
          "type": "address"
        }
      ],
      "name": "establishWinner",
      "outputs": [],
      "payable": false,
      "stateMutability": "nonpayable",
      "type": "function"
    },
    {
      "inputs": [],
      "payable": false,
      "stateMutability": "nonpayable",
      "type": "constructor"
    }
  ],
  "bytecode": "0x6060604052341561000f57600080fd5b6000600160405180807f726f636b000000000000000000000000000000000000000000000000000000008152506004019050908152602001604051809103902060405180807f726f636b0000000000000000000000000000000000000000000000000000000081525060040190509081526020016040518091039020819055506002600160405180807f726f636b000000000000000000000000000000000000000000000000000000008152506004019050908152602001604051809103902060405180807f7061706572000000000000000000000000000000000000000000000000000000815250600501905090815260200160405180910390208190555060018060405180807f726f636b000000000000000000000000000000000000000000000000000000008152506004019050908152602001604051809103902060405180807f73636973736f7273000000000000000000000000000000000000000000000000815250600801905090815260200160405180910390208190555060018060405180807f726f636b000000000000000000000000000000000000000000000000000000008152506004019050908152602001604051809103902060405180807f6c697a617264000000000000000000000000000000000000000000000000000081525060060190509081526020016040518091039020819055506002600160405180807f726f636b000000000000000000000000000000000000000000000000000000008152506004019050908152602001604051809103902060405180807f73706f636b000000000000000000000000000000000000000000000000000000815250600501905090815260200160405180910390208190555060018060405180807f70617065720000000000000000000000000000000000000000000000000000008152506005019050908152602001604051809103902060405180807f726f636b0000000000000000000000000000000000000000000000000000000081525060040190509081526020016040518091039020819055506000600160405180807f70617065720000000000000000000000000000000000000000000000000000008152506005019050908152602001604051809103902060405180807f706170657200000000000000000000000000000000000000000000000000000081525060050190509081526020016040518091039020819055506002600160405180807f70617065720000000000000000000000000000000000000000000000000000008152506005019050908152602001604051809103902060405180807f73636973736f727300000000000000000000000000000000000000000000000081525060080190509081526020016040518091039020819055506002600160405180807f70617065720000000000000000000000000000000000000000000000000000008152506005019050908152602001604051809103902060405180807f6c697a6172640000000000000000000000000000000000000000000000000000815250600601905090815260200160405180910390208190555060018060405180807f70617065720000000000000000000000000000000000000000000000000000008152506005019050908152602001604051809103902060405180807f73706f636b00000000000000000000000000000000000000000000000000000081525060050190509081526020016040518091039020819055506002600160405180807f73636973736f72730000000000000000000000000000000000000000000000008152506008019050908152602001604051809103902060405180807f726f636b00000000000000000000000000000000000000000000000000000000815250600401905090815260200160405180910390208190555060018060405180807f73636973736f72730000000000000000000000000000000000000000000000008152506008019050908152602001604051809103902060405180807f706170657200000000000000000000000000000000000000000000000000000081525060050190509081526020016040518091039020819055506000600160405180807f73636973736f72730000000000000000000000000000000000000000000000008152506008019050908152602001604051809103902060405180807f73636973736f7273000000000000000000000000000000000000000000000000815250600801905090815260200160405180910390208190555060018060405180807f73636973736f72730000000000000000000000000000000000000000000000008152506008019050908152602001604051809103902060405180807f6c697a617264000000000000000000000000000000000000000000000000000081525060060190509081526020016040518091039020819055506002600160405180807f73636973736f72730000000000000000000000000000000000000000000000008152506008019050908152602001604051809103902060405180807f73706f636b00000000000000000000000000000000000000000000000000000081525060050190509081526020016040518091039020819055506002600160405180807f6c697a61726400000000000000000000000000000000000000000000000000008152506006019050908152602001604051809103902060405180807f726f636b00000000000000000000000000000000000000000000000000000000815250600401905090815260200160405180910390208190555060018060405180807f6c697a61726400000000000000000000000000000000000000000000000000008152506006019050908152602001604051809103902060405180807f706170657200000000000000000000000000000000000000000000000000000081525060050190509081526020016040518091039020819055506002600160405180807f6c697a61726400000000000000000000000000000000000000000000000000008152506006019050908152602001604051809103902060405180807f73636973736f727300000000000000000000000000000000000000000000000081525060080190509081526020016040518091039020819055506000600160405180807f6c697a61726400000000000000000000000000000000000000000000000000008152506006019050908152602001604051809103902060405180807f6c697a6172640000000000000000000000000000000000000000000000000000815250600601905090815260200160405180910390208190555060018060405180807f6c697a61726400000000000000000000000000000000000000000000000000008152506006019050908152602001604051809103902060405180807f73706f636b000000000000000000000000000000000000000000000000000000815250600501905090815260200160405180910390208190555060018060405180807f73706f636b0000000000000000000000000000000000000000000000000000008152506005019050908152602001604051809103902060405180807f726f636b0000000000000000000000000000000000000000000000000000000081525060040190509081526020016040518091039020819055506002600160405180807f73706f636b0000000000000000000000000000000000000000000000000000008152506005019050908152602001604051809103902060405180807f7061706572000000000000000000000000000000000000000000000000000000815250600501905090815260200160405180910390208190555060018060405180807f73706f636b0000000000000000000000000000000000000000000000000000008152506005019050908152602001604051809103902060405180807f73636973736f727300000000000000000000000000000000000000000000000081525060080190509081526020016040518091039020819055506002600160405180807f73706f636b0000000000000000000000000000000000000000000000000000008152506005019050908152602001604051809103902060405180807f6c697a617264000000000000000000000000000000000000000000000000000081525060060190509081526020016040518091039020819055506000600160405180807f73706f636b0000000000000000000000000000000000000000000000000000008152506005019050908152602001604051809103902060405180807f73706f636b0000000000000000000000000000000000000000000000000000008152506005019050908152602001604051809103902081905550611f3b80610c946000396000f30060606040526004361061006d576000357c0100000000000000000000000000000000000000000000000000000000900463ffffffff1680631bc0ec5b1461007257806340c884d51461017157806354e4437e14610206578063dd5891b3146103af578063ff98337d14610463575b600080fd5b341561007d57600080fd5b61012f600480803573ffffffffffffffffffffffffffffffffffffffff1690602001909190803590602001908201803590602001908080601f0160208091040260200160405190810160405280939291908181526020018383808284378201915050505050509190803590602001908201803590602001908080601f0160208091040260200160405190810160405280939291908181526020018383808284378201915050505050509190505061049c565b604051808273ffffffffffffffffffffffffffffffffffffffff1673ffffffffffffffffffffffffffffffffffffffff16815260200191505060405180910390f35b610204600480803590602001908201803590602001908080601f0160208091040260200160405190810160405280939291908181526020018383808284378201915050505050509190803590602001908201803590602001908080601f01602080910402602001604051908101604052809392919081815260200183838082843782019150505050505091905050610950565b005b341561021157600080fd5b61023d600480803573ffffffffffffffffffffffffffffffffffffffff16906020019091905050610eeb565b604051808881526020018773ffffffffffffffffffffffffffffffffffffffff1673ffffffffffffffffffffffffffffffffffffffff1681526020018673ffffffffffffffffffffffffffffffffffffffff1673ffffffffffffffffffffffffffffffffffffffff168152602001856000191660001916815260200184600019166000191681526020018060200180602001838103835285818151815260200191508051906020019080838360005b838110156103075780820151818401526020810190506102ec565b50505050905090810190601f1680156103345780820380516001836020036101000a031916815260200191505b50838103825284818151815260200191508051906020019080838360005b8381101561036d578082015181840152602081019050610352565b50505050905090810190601f16801561039a5780820380516001836020036101000a031916815260200191505b50995050505050505050505060405180910390f35b610461600480803573ffffffffffffffffffffffffffffffffffffffff1690602001909190803590602001908201803590602001908080601f0160208091040260200160405190810160405280939291908181526020018383808284378201915050505050509190803590602001908201803590602001908080601f01602080910402602001604051908101604052809392919081815260200183838082843782019150505050505091905050611104565b005b341561046e57600080fd5b61049a600480803573ffffffffffffffffffffffffffffffffffffffff1690602001909190505061172f565b005b6000808460006001026000808373ffffffffffffffffffffffffffffffffffffffff1673ffffffffffffffffffffffffffffffffffffffff168152602001908152602001600020600101600101546000191614158015610548575060006001026000808373ffffffffffffffffffffffffffffffffffffffff1673ffffffffffffffffffffffffffffffffffffffff168152602001908152602001600020600301600101546000191614155b15610947576000808773ffffffffffffffffffffffffffffffffffffffff1673ffffffffffffffffffffffffffffffffffffffff16815260200190815260200160002091508160010160000160009054906101000a900473ffffffffffffffffffffffffffffffffffffffff1673ffffffffffffffffffffffffffffffffffffffff163373ffffffffffffffffffffffffffffffffffffffff161480156106e05750836040518082805190602001908083835b60208310151561062057805182526020820191506020810190506020830392506105fb565b6001836020036101000a0380198251168184511680821785525050505050509050019150506040518091039020856040518082805190602001908083835b602083101515610683578051825260208201915060208101905060208303925061065e565b6001836020036101000a038019825116818451168082178552505050505050905001915050604051809103902018604051808260001916600019168152602001915050604051809103902060001916826001016001015460001916145b1561076b576000826006018054600181600116156101000203166002900490501415610710574282600701819055505b60788260070154014211151561073a5784826005019080519060200190610738929190611e56565b505b600082600601805460018160011615610100020316600290049050141515610766576107658661172f565b5b610946565b8160030160000160009054906101000a900473ffffffffffffffffffffffffffffffffffffffff1673ffffffffffffffffffffffffffffffffffffffff163373ffffffffffffffffffffffffffffffffffffffff161480156108be5750836040518082805190602001908083835b6020831015156107fe57805182526020820191506020810190506020830392506107d9565b6001836020036101000a0380198251168184511680821785525050505050509050019150506040518091039020856040518082805190602001908083835b602083101515610861578051825260208201915060208101905060208303925061083c565b6001836020036101000a038019825116818451168082178552505050505050905001915050604051809103902018604051808260001916600019168152602001915050604051809103902060001916826003016001015460001916145b156109455760008260050180546001816001161561010002031660029004905014156108ee574282600701819055505b6078826007015401421115156109185784826006019080519060200190610916929190611e56565b505b600082600501805460018160011615610100020316600290049050141515610944576109438661172f565b5b5b5b5b50509392505050565b6000346000811115610ee55783333460405180807f726f636b000000000000000000000000000000000000000000000000000000008152506004019050604051809103902060001916836040518082805190602001908083835b6020831015156109cf57805182526020820191506020810190506020830392506109aa565b6001836020036101000a0380198251168184511680821785525050505050509050019150506040518091039020600019161480610aaa575060405180807f70617065720000000000000000000000000000000000000000000000000000008152506005019050604051809103902060001916836040518082805190602001908083835b602083101515610a775780518252602082019150602081019050602083039250610a52565b6001836020036101000a038019825116818451168082178552505050505050905001915050604051809103902060001916145b80610b53575060405180807f73636973736f72730000000000000000000000000000000000000000000000008152506008019050604051809103902060001916836040518082805190602001908083835b602083101515610b205780518252602082019150602081019050602083039250610afb565b6001836020036101000a038019825116818451168082178552505050505050905001915050604051809103902060001916145b80610bfc575060405180807f6c697a61726400000000000000000000000000000000000000000000000000008152506006019050604051809103902060001916836040518082805190602001908083835b602083101515610bc95780518252602082019150602081019050602083039250610ba4565b6001836020036101000a038019825116818451168082178552505050505050905001915050604051809103902060001916145b80610ca5575060405180807f73706f636b0000000000000000000000000000000000000000000000000000008152506005019050604051809103902060001916836040518082805190602001908083835b602083101515610c725780518252602082019150602081019050602083039250610c4d565b6001836020036101000a038019825116818451168082178552505050505050905001915050604051809103902060001916145b15610e96576000803373ffffffffffffffffffffffffffffffffffffffff1673ffffffffffffffffffffffffffffffffffffffff1681526020019081526020016000209450600085600001541415610e5057610d0033611d08565b348560000160008282540192505081905550338560010160000160006101000a81548173ffffffffffffffffffffffffffffffffffffffff021916908373ffffffffffffffffffffffffffffffffffffffff160217905550856040518082805190602001908083835b602083101515610d8e5780518252602082019150602081019050602083039250610d69565b6001836020036101000a0380198251168184511680821785525050505050509050019150506040518091039020876040518082805190602001908083835b602083101515610df15780518252602082019150602081019050602083039250610dcc565b6001836020036101000a0380198251168184511680821785525050505050509050019150506040518091039020186040518082600019166000191681526020019150506040518091039020856001016001018160001916905550610e91565b3373ffffffffffffffffffffffffffffffffffffffff166108fc349081150290604051600060405180830381858888f193505050501515610e9057600080fd5b5b610ee1565b6000811115610ee0578173ffffffffffffffffffffffffffffffffffffffff166108fc829081150290604051600060405180830381858888f193505050501515610edf57600080fd5b5b5b5050505b50505050565b6000806000806000610efb611ed6565b610f03611ed6565b60008060008a73ffffffffffffffffffffffffffffffffffffffff1673ffffffffffffffffffffffffffffffffffffffff168152602001908152602001600020905080600001548160010160000160009054906101000a900473ffffffffffffffffffffffffffffffffffffffff168260030160000160009054906101000a900473ffffffffffffffffffffffffffffffffffffffff16836001016001015484600301600101548560050186600601818054600181600116156101000203166002900480601f0160208091040260200160405190810160405280929190818152602001828054600181600116156101000203166002900480156110475780601f1061101c57610100808354040283529160200191611047565b820191906000526020600020905b81548152906001019060200180831161102a57829003601f168201915b50505050509150808054600181600116156101000203166002900480601f0160208091040260200160405190810160405280929190818152602001828054600181600116156101000203166002900480156110e35780601f106110b8576101008083540402835291602001916110e3565b820191906000526020600020905b8154815290600101906020018083116110c657829003601f168201915b50505050509050975097509750975097509750975050919395979092949650565b60003460008111156117285783333460405180807f726f636b000000000000000000000000000000000000000000000000000000008152506004019050604051809103902060001916836040518082805190602001908083835b602083101515611183578051825260208201915060208101905060208303925061115e565b6001836020036101000a038019825116818451168082178552505050505050905001915050604051809103902060001916148061125e575060405180807f70617065720000000000000000000000000000000000000000000000000000008152506005019050604051809103902060001916836040518082805190602001908083835b60208310151561122b5780518252602082019150602081019050602083039250611206565b6001836020036101000a038019825116818451168082178552505050505050905001915050604051809103902060001916145b80611307575060405180807f73636973736f72730000000000000000000000000000000000000000000000008152506008019050604051809103902060001916836040518082805190602001908083835b6020831015156112d457805182526020820191506020810190506020830392506112af565b6001836020036101000a038019825116818451168082178552505050505050905001915050604051809103902060001916145b806113b0575060405180807f6c697a61726400000000000000000000000000000000000000000000000000008152506006019050604051809103902060001916836040518082805190602001908083835b60208310151561137d5780518252602082019150602081019050602083039250611358565b6001836020036101000a038019825116818451168082178552505050505050905001915050604051809103902060001916145b80611459575060405180807f73706f636b0000000000000000000000000000000000000000000000000000008152506005019050604051809103902060001916836040518082805190602001908083835b6020831015156114265780518252602082019150602081019050602083039250611401565b6001836020036101000a038019825116818451168082178552505050505050905001915050604051809103902060001916145b156116d9576000808973ffffffffffffffffffffffffffffffffffffffff1673ffffffffffffffffffffffffffffffffffffffff16815260200190815260200160002094508460010160000160009054906101000a900473ffffffffffffffffffffffffffffffffffffffff1673ffffffffffffffffffffffffffffffffffffffff163373ffffffffffffffffffffffffffffffffffffffff161415801561153e575060008560030160000160009054906101000a900473ffffffffffffffffffffffffffffffffffffffff1673ffffffffffffffffffffffffffffffffffffffff16145b1561169357348560000160008282540192505081905550338560030160000160006101000a81548173ffffffffffffffffffffffffffffffffffffffff021916908373ffffffffffffffffffffffffffffffffffffffff160217905550856040518082805190602001908083835b6020831015156115d157805182526020820191506020810190506020830392506115ac565b6001836020036101000a0380198251168184511680821785525050505050509050019150506040518091039020876040518082805190602001908083835b602083101515611634578051825260208201915060208101905060208303925061160f565b6001836020036101000a03801982511681845116808217855250505050505090500191505060405180910390201860405180826000191660001916815260200191505060405180910390208560030160010181600019169055506116d4565b3373ffffffffffffffffffffffffffffffffffffffff166108fc349081150290604051600060405180830381858888f1935050505015156116d357600080fd5b5b611724565b6000811115611723578173ffffffffffffffffffffffffffffffffffffffff166108fc829081150290604051600060405180830381858888f19350505050151561172257600080fd5b5b5b5050505b5050505050565b60008060008373ffffffffffffffffffffffffffffffffffffffff1673ffffffffffffffffffffffffffffffffffffffff1681526020019081526020016000209050600081600501805460018160011615610100020316600290049050141580156117b25750600081600601805460018160011615610100020316600290049050145b80156117c5575060788160070154014210155b1561183a578060010160000160009054906101000a900473ffffffffffffffffffffffffffffffffffffffff1673ffffffffffffffffffffffffffffffffffffffff166108fc82600001549081150290604051600060405180830381858888f19350505050151561183557600080fd5b611cfa565b60008160050180546001816001161561010002031660029004905014801561187b575060008160060180546001816001161561010002031660029004905014155b801561188e575060788160070154014210155b15611903578060030160000160009054906101000a900473ffffffffffffffffffffffffffffffffffffffff1673ffffffffffffffffffffffffffffffffffffffff166108fc82600001549081150290604051600060405180830381858888f1935050505015156118fe57600080fd5b611cf9565b60008160050180546001816001161561010002031660029004905014158015611945575060008160060180546001816001161561010002031660029004905014155b15611cf8576001808260050160405180828054600181600116156101000203166002900480156119ac5780601f1061198a5761010080835404028352918201916119ac565b820191906000526020600020905b815481529060010190602001808311611998575b50509150509081526020016040518091039020826006016040518082805460018160011615610100020316600290048015611a1e5780601f106119fc576101008083540402835291820191611a1e565b820191906000526020600020905b815481529060010190602001808311611a0a575b50509150509081526020016040518091039020541415611aa8578060010160000160009054906101000a900473ffffffffffffffffffffffffffffffffffffffff1673ffffffffffffffffffffffffffffffffffffffff166108fc82600001549081150290604051600060405180830381858888f193505050501515611aa357600080fd5b611cf7565b60026001826005016040518082805460018160011615610100020316600290048015611b0b5780601f10611ae9576101008083540402835291820191611b0b565b820191906000526020600020905b815481529060010190602001808311611af7575b50509150509081526020016040518091039020826006016040518082805460018160011615610100020316600290048015611b7d5780601f10611b5b576101008083540402835291820191611b7d565b820191906000526020600020905b815481529060010190602001808311611b69575b50509150509081526020016040518091039020541415611c07578060030160000160009054906101000a900473ffffffffffffffffffffffffffffffffffffffff1673ffffffffffffffffffffffffffffffffffffffff166108fc82600001549081150290604051600060405180830381858888f193505050501515611c0257600080fd5b611cf6565b8060010160000160009054906101000a900473ffffffffffffffffffffffffffffffffffffffff1673ffffffffffffffffffffffffffffffffffffffff166108fc60028360000154811515611c5857fe5b049081150290604051600060405180830381858888f193505050501515611c7e57600080fd5b8060030160000160009054906101000a900473ffffffffffffffffffffffffffffffffffffffff1673ffffffffffffffffffffffffffffffffffffffff166108fc60028360000154811515611ccf57fe5b049081150290604051600060405180830381858888f193505050501515611cf557600080fd5b5b5b5b5b5b600081600001819055505050565b60008060008373ffffffffffffffffffffffffffffffffffffffff1673ffffffffffffffffffffffffffffffffffffffff168152602001908152602001600020905060008160010160000160006101000a81548173ffffffffffffffffffffffffffffffffffffffff021916908373ffffffffffffffffffffffffffffffffffffffff16021790555060006001028160010160010181600019169055506020604051908101604052806000815250816005019080519060200190611dcd929190611e56565b5060008160030160000160006101000a81548173ffffffffffffffffffffffffffffffffffffffff021916908373ffffffffffffffffffffffffffffffffffffffff16021790555060006001028160030160010181600019169055506020604051908101604052806000815250816006019080519060200190611e51929190611e56565b505050565b828054600181600116156101000203166002900490600052602060002090601f016020900481019282601f10611e9757805160ff1916838001178555611ec5565b82800160010185558215611ec5579182015b82811115611ec4578251825591602001919060010190611ea9565b5b509050611ed29190611eea565b5090565b602060405190810160405280600081525090565b611f0c91905b80821115611f08576000816000905550600101611ef0565b5090565b905600a165627a7a723058209c23e61db4c99deaddc51c57e5964ee2668dd1bf345605ae5bb68f712b3e434f0029",
  "source": "pragma solidity ^0.4.11;\r\n\r\ncontract rpsls {\r\n\r\n    // Struct that identify a player\r\n    struct Player {\r\n        // Player Address\r\n        address addr;\r\n        // Hash of the choice made by the player\r\n        bytes32 hashedChoice;\r\n    }\r\n\r\n    // Struct that identify a game\r\n    struct Game {\r\n        // Balance of the game\r\n        uint balance;\r\n        // Player1 struct with all his features\r\n        Player player1;\r\n        // Player2 struct with all his features\r\n        Player player2;\r\n        // PlainChoice of player1\r\n        string player1Choice;\r\n        // PlainChoice of player2\r\n        string player2Choice;\r\n        // Time in which the first of the two player reveal his choice\r\n        uint firstRevealTime;\r\n    }\r\n\r\n    // Map of games\r\n    mapping (address => Game) gamesMap;\r\n\r\n    // Map of scores\r\n    mapping (string => mapping(string => int)) scoresMatrix;\r\n    \r\n    // Check if the player is not betting\r\n    modifier checkValue(uint value) {\r\n        if (value > 0)\r\n            _;\r\n    }\r\n\r\n    // Check if the player's choice is valid\r\n    modifier checkChoice(string choice, address sender, uint value) {\r\n        if (keccak256(choice) == keccak256(\"rock\") || keccak256(choice) == keccak256(\"paper\") || keccak256(choice) == keccak256(\"scissors\") || keccak256(choice) == keccak256(\"lizard\") || keccak256(choice) == keccak256(\"spock\"))\r\n            _;\r\n        else if (value > 0) \r\n            sender.transfer(value);\r\n    }\r\n\r\n    // Check players hav already done their choices\r\n    modifier checkStatus(address hostGame) {\r\n        if (gamesMap[hostGame].player1.hashedChoice != 0 && gamesMap[hostGame].player2.hashedChoice != 0) \r\n            _;\r\n    }\r\n\r\n    // Costructor:\r\n    //  Fill the matrix with all the possible scores configuration\r\n    function rpsls() public {\r\n        // Rock configurations\r\n        scoresMatrix[\"rock\"][\"rock\"] = 0;\r\n        scoresMatrix[\"rock\"][\"paper\"] = 2;\r\n        scoresMatrix[\"rock\"][\"scissors\"] = 1;\r\n        scoresMatrix[\"rock\"][\"lizard\"] = 1;\r\n        scoresMatrix[\"rock\"][\"spock\"] = 2;\r\n\r\n        // Paper configurations\r\n        scoresMatrix[\"paper\"][\"rock\"] = 1;\r\n        scoresMatrix[\"paper\"][\"paper\"] = 0;\r\n        scoresMatrix[\"paper\"][\"scissors\"] = 2;\r\n        scoresMatrix[\"paper\"][\"lizard\"] = 2;\r\n        scoresMatrix[\"paper\"][\"spock\"] = 1;\r\n\r\n        // Scissors configurations\r\n        scoresMatrix[\"scissors\"][\"rock\"] = 2;\r\n        scoresMatrix[\"scissors\"][\"paper\"] = 1;\r\n        scoresMatrix[\"scissors\"][\"scissors\"] = 0;\r\n        scoresMatrix[\"scissors\"][\"lizard\"] = 1;\r\n        scoresMatrix[\"scissors\"][\"spock\"] = 2;\r\n\r\n        // Lizard configurations\r\n        scoresMatrix[\"lizard\"][\"rock\"] = 2;\r\n        scoresMatrix[\"lizard\"][\"paper\"] = 1;\r\n        scoresMatrix[\"lizard\"][\"scissors\"] = 2;\r\n        scoresMatrix[\"lizard\"][\"lizard\"] = 0;\r\n        scoresMatrix[\"lizard\"][\"spock\"] = 1;\r\n\r\n        // Spock configurations\r\n        scoresMatrix[\"spock\"][\"rock\"] = 1;\r\n        scoresMatrix[\"spock\"][\"paper\"] = 2;\r\n        scoresMatrix[\"spock\"][\"scissors\"] = 1;\r\n        scoresMatrix[\"spock\"][\"lizard\"] = 2;\r\n        scoresMatrix[\"spock\"][\"spock\"] = 0;\r\n    }\r\n\r\n    // Create or restart a game.The games are saved in gamesMap using user creator address\r\n    //  Before starting the function, bet value and choice selected are checked\r\n    function start(string choice, string key) checkValue(msg.value) checkChoice(choice, msg.sender, msg.value) payable public {\r\n        // Get game with index equal to player address. If there is not a game indexed in this way, \r\n        // it automatically create a new empty game\r\n        Game storage g = gamesMap[msg.sender];\r\n\r\n        // If balance is set to 0 it means that game was empty or the previos game is ended\r\n        //  we clear all the fields before going on\r\n        if (g.balance == 0) {\r\n            // Clear game fields\r\n            clear(msg.sender);\r\n            // Adding to balance the player1 bet\r\n            g.balance += msg.value;\r\n            // setting the player1 address and hashed choice\r\n            g.player1.addr = msg.sender;\r\n            g.player1.hashedChoice = keccak256(keccak256(choice) ^ keccak256(key));\r\n        } else {\r\n            msg.sender.transfer(msg.value);\r\n        }\r\n    }\r\n\r\n    // Clear game fields\r\n    function clear(address hostGame) private {\r\n        Game storage g = gamesMap[hostGame];\r\n\r\n        g.player1.addr = 0;\r\n        g.player1.hashedChoice = 0x0;\r\n        g.player1Choice = \"\";\r\n        g.player2.addr = 0;\r\n        g.player2.hashedChoice = 0x0;\r\n        g.player2Choice = \"\";\r\n    }\r\n\r\n    // Allow a player to join a game given the host address.\r\n    //  Before joining the game, bet value and choice selected are checked\r\n    function join(address hostGame, string choice, string key) checkValue(msg.value) checkChoice(choice, msg.sender, msg.value) payable public {\r\n        Game storage g = gamesMap[hostGame];\r\n\r\n        // Checking if the sender is different from the game host and if the room is not full\r\n        if (msg.sender != g.player1.addr && g.player2.addr == 0) {\r\n            // Adding to balance the player2 bet\r\n            g.balance += msg.value;\r\n            // setting the player2 address and hashed choice\r\n            g.player2.addr = msg.sender;\r\n            g.player2.hashedChoice = keccak256(keccak256(choice) ^ keccak256(key));\r\n        } else {\r\n            msg.sender.transfer(msg.value);\r\n        }\r\n    }\r\n\r\n    // Reveal the player's choice. \r\n    //  Before starting the function, it is checked if both players have made a choice\r\n    function reveal(address hostGame, string choice, string key) checkStatus(hostGame) public returns(address) {\r\n        Game storage g = gamesMap[hostGame];\r\n\r\n        // If the player that is revealing is player1 and the hashed choice matched with the saved one...\r\n        if (msg.sender == g.player1.addr && g.player1.hashedChoice == keccak256(keccak256(choice) ^ keccak256(key))) {\r\n            // ... we check if he is the first player who revealed:\r\n            //  If true, we save the time in which he revealed \r\n            if (bytes(g.player2Choice).length == 0)\r\n                g.firstRevealTime = block.timestamp;\r\n\r\n            // If the time is not running out we saved the player's plainchoice in the game\r\n            if (block.timestamp <= (g.firstRevealTime + 120))\r\n                g.player1Choice = choice;\r\n\r\n            // If the player2 already revealed his choice the game can ends\r\n            if (bytes(g.player2Choice).length != 0)\r\n                establishWinner(hostGame);\r\n\r\n        // Same operations are done in case of player2\r\n        } else if (msg.sender == g.player2.addr && g.player2.hashedChoice == keccak256(keccak256(choice) ^ keccak256(key))) {\r\n            if (bytes(g.player1Choice).length == 0)\r\n                g.firstRevealTime = block.timestamp;\r\n\r\n            if (block.timestamp <= (g.firstRevealTime + 120))\r\n                g.player2Choice = choice;\r\n            \r\n            if (bytes(g.player1Choice).length != 0)\r\n                establishWinner(hostGame);\r\n        }\r\n    }\r\n\r\n    // Establish and pay the winner of the game\r\n    function establishWinner(address hostGame) public {\r\n        Game storage g = gamesMap[hostGame];\r\n        // If player2 didn't reveal his choice before countdown ended player1 wins\r\n        if (bytes(g.player1Choice).length != 0 && bytes(g.player2Choice).length == 0 && block.timestamp >= (g.firstRevealTime + 120)) {\r\n            // And get all the balance\r\n            g.player1.addr.transfer(g.balance);\r\n        \r\n        // If player1 idn't reveal his choice before countdown ended player2 wins\r\n        } else if (bytes(g.player1Choice).length == 0 && bytes(g.player2Choice).length != 0 && block.timestamp >= (g.firstRevealTime + 120)) {\r\n            // And get all the balance\r\n            g.player2.addr.transfer(g.balance);\r\n\r\n        // In the case of both players revealed their choices check the scoreMatrix in order to establish the winner\r\n        } else if (bytes(g.player1Choice).length != 0 && bytes(g.player2Choice).length != 0) {\r\n            // Player1 wins\r\n            if (scoresMatrix[g.player1Choice][g.player2Choice] == 1) {\r\n              g.player1.addr.transfer(g.balance);\r\n\r\n            // Player2 wins\r\n            } else if (scoresMatrix[g.player1Choice][g.player2Choice] == 2) {\r\n                g.player2.addr.transfer(g.balance);\r\n            \r\n            // Draw case\r\n            } else {\r\n                // Give back half of the balance to both players\r\n                g.player1.addr.transfer(g.balance/2);\r\n                g.player2.addr.transfer(g.balance/2);\r\n            }\r\n        }\r\n\r\n        // Set the balance back to 0\r\n        g.balance = 0;\r\n    }\r\n\r\n    function getGameStatus (address hostGame) public view returns(uint256, address, address, bytes32, bytes32, string, string) {\r\n        Game storage g = gamesMap[hostGame];\r\n        return(g.balance, g.player1.addr, g.player2.addr, g.player1.hashedChoice, g.player2.hashedChoice, g.player1Choice, g.player2Choice);\r\n    }\r\n}\r\n",
  "sourcePath": "C:\\Users\\Gabriele\\Desktop\\DPS\\Progetto_DPS_corretto\\Gabbo_LS\\contracts\\rpsls.sol",
  "compiler": {
    "name": "solc",
    "version": "0.4.18+commit.9cf6e910.Emscripten.clang"
  },
  "schemaVersion": "1.0.1",
  "updatedAt": "2018-02-05T21:55:06.737Z"
}